{
  "fileName": "Controller.sol",
  "contractName": "Controller",
  "source": "pragma solidity ^0.4.24;\n\n/**\n * @title BOLApp\n * @dev An interface for BOL admin functions implemented in the proxy contracts\n */\ncontract BOLApp {\n  function pause() external;\n  function changeController(address) external;\n  function setMaster(address) external;\n  function setTarget(bytes4, address) external;\n  function getTarget(bytes4) external view returns (address);\n}\n\n/**\n * @title Controller\n * @dev Admin interface for the BOLApp\n */\ncontract Controller {\n\n  BOLApp public app;\n\n  address public admin;\n\n  /**\n   * @dev Only the admin address can access functions with this modifier\n   */\n  modifier onlyAdmin {\n    require(msg.sender == admin);\n    _;\n  }\n\n  /**\n   * @dev Constructor\n   * @param bolApp The address implementing the BOLApp interface\n   * @param bolAdmin The address allowed to use this contract\n   */\n  constructor (address bolApp, address bolAdmin) public {\n    app = BOLApp(bolApp);\n    admin = bolAdmin;\n  }\n\n  /**\n   * @dev Allows the admin to pause/unpause all non-admin execution in the application\n   *      All functions not implemented in the MasterProxy contract will be locked\n   *      until this function is called again.\n   */\n  function pause() external onlyAdmin {\n    app.pause();\n  }\n\n  /**\n   * @dev Change the address allowed to execute admin functions in the app.\n   *      Note that by default, this contract is the controller. Changing\n   *      the controller will migrate the permissions for this contract to\n   *      another address.\n   * @param newController The new controller address\n   */\n  function changeController(address newController) external onlyAdmin {\n    app.changeController(newController);\n  }\n\n  /**\n   * @dev Allows the admin to set a delegate target for a function selector in the app\n   * @param functionSel The function selector for which routing is adjusted\n   * @param newTarget The new destination to which calls with the selector will be routed\n   */\n  function setTarget(bytes4 functionSel, address newTarget) external onlyAdmin {\n    app.setTarget(functionSel, newTarget);\n  }\n\n  /**\n   * @dev Allows the admin to set a new master address for the application\n   * @param newMaster The new default delegate target for the universal proxy\n   */\n  function setMaster(address newMaster) external onlyAdmin {\n    app.setMaster(newMaster);\n  }\n}\n",
  "sourcePath": "contracts/Controller.sol",
  "abi": [
    {
      "constant": false,
      "inputs": [
        {
          "name": "functionSel",
          "type": "bytes4"
        },
        {
          "name": "newTarget",
          "type": "address"
        }
      ],
      "name": "setTarget",
      "outputs": [],
      "payable": false,
      "stateMutability": "nonpayable",
      "type": "function"
    },
    {
      "constant": false,
      "inputs": [
        {
          "name": "newMaster",
          "type": "address"
        }
      ],
      "name": "setMaster",
      "outputs": [],
      "payable": false,
      "stateMutability": "nonpayable",
      "type": "function"
    },
    {
      "constant": false,
      "inputs": [
        {
          "name": "newController",
          "type": "address"
        }
      ],
      "name": "changeController",
      "outputs": [],
      "payable": false,
      "stateMutability": "nonpayable",
      "type": "function"
    },
    {
      "constant": false,
      "inputs": [],
      "name": "pause",
      "outputs": [],
      "payable": false,
      "stateMutability": "nonpayable",
      "type": "function"
    },
    {
      "constant": true,
      "inputs": [],
      "name": "app",
      "outputs": [
        {
          "name": "",
          "type": "address"
        }
      ],
      "payable": false,
      "stateMutability": "view",
      "type": "function"
    },
    {
      "constant": true,
      "inputs": [],
      "name": "admin",
      "outputs": [
        {
          "name": "",
          "type": "address"
        }
      ],
      "payable": false,
      "stateMutability": "view",
      "type": "function"
    },
    {
      "inputs": [
        {
          "name": "bolApp",
          "type": "address"
        },
        {
          "name": "bolAdmin",
          "type": "address"
        }
      ],
      "payable": false,
      "stateMutability": "nonpayable",
      "type": "constructor"
    }
  ],
  "bytecode": "0x608060405234801561001057600080fd5b506040516040806108558339810180604052810190808051906020019092919080519060200190929190505050816000806101000a81548173ffffffffffffffffffffffffffffffffffffffff021916908373ffffffffffffffffffffffffffffffffffffffff16021790555080600160006101000a81548173ffffffffffffffffffffffffffffffffffffffff021916908373ffffffffffffffffffffffffffffffffffffffff1602179055505050610786806100cf6000396000f300608060405260043610610078576000357c0100000000000000000000000000000000000000000000000000000000900463ffffffff16806308af4b451461007d57806326fae0d3146100e95780633cebb8231461012c5780638456cb591461016f578063b76564bd14610186578063f851a440146101dd575b600080fd5b34801561008957600080fd5b506100e760048036038101908080357bffffffffffffffffffffffffffffffffffffffffffffffffffffffff19169060200190929190803573ffffffffffffffffffffffffffffffffffffffff169060200190929190505050610234565b005b3480156100f557600080fd5b5061012a600480360381019080803573ffffffffffffffffffffffffffffffffffffffff1690602001909291905050506103ae565b005b34801561013857600080fd5b5061016d600480360381019080803573ffffffffffffffffffffffffffffffffffffffff1690602001909291905050506104e1565b005b34801561017b57600080fd5b50610184610614565b005b34801561019257600080fd5b5061019b61070f565b604051808273ffffffffffffffffffffffffffffffffffffffff1673ffffffffffffffffffffffffffffffffffffffff16815260200191505060405180910390f35b3480156101e957600080fd5b506101f2610734565b604051808273ffffffffffffffffffffffffffffffffffffffff1673ffffffffffffffffffffffffffffffffffffffff16815260200191505060405180910390f35b600160009054906101000a900473ffffffffffffffffffffffffffffffffffffffff1673ffffffffffffffffffffffffffffffffffffffff163373ffffffffffffffffffffffffffffffffffffffff1614151561029057600080fd5b6000809054906101000a900473ffffffffffffffffffffffffffffffffffffffff1673ffffffffffffffffffffffffffffffffffffffff166308af4b4583836040518363ffffffff167c010000000000000000000000000000000000000000000000000000000002815260040180837bffffffffffffffffffffffffffffffffffffffffffffffffffffffff19167bffffffffffffffffffffffffffffffffffffffffffffffffffffffff191681526020018273ffffffffffffffffffffffffffffffffffffffff1673ffffffffffffffffffffffffffffffffffffffff16815260200192505050600060405180830381600087803b15801561039257600080fd5b505af11580156103a6573d6000803e3d6000fd5b505050505050565b600160009054906101000a900473ffffffffffffffffffffffffffffffffffffffff1673ffffffffffffffffffffffffffffffffffffffff163373ffffffffffffffffffffffffffffffffffffffff1614151561040a57600080fd5b6000809054906101000a900473ffffffffffffffffffffffffffffffffffffffff1673ffffffffffffffffffffffffffffffffffffffff166326fae0d3826040518263ffffffff167c0100000000000000000000000000000000000000000000000000000000028152600401808273ffffffffffffffffffffffffffffffffffffffff1673ffffffffffffffffffffffffffffffffffffffff168152602001915050600060405180830381600087803b1580156104c657600080fd5b505af11580156104da573d6000803e3d6000fd5b5050505050565b600160009054906101000a900473ffffffffffffffffffffffffffffffffffffffff1673ffffffffffffffffffffffffffffffffffffffff163373ffffffffffffffffffffffffffffffffffffffff1614151561053d57600080fd5b6000809054906101000a900473ffffffffffffffffffffffffffffffffffffffff1673ffffffffffffffffffffffffffffffffffffffff16633cebb823826040518263ffffffff167c0100000000000000000000000000000000000000000000000000000000028152600401808273ffffffffffffffffffffffffffffffffffffffff1673ffffffffffffffffffffffffffffffffffffffff168152602001915050600060405180830381600087803b1580156105f957600080fd5b505af115801561060d573d6000803e3d6000fd5b5050505050565b600160009054906101000a900473ffffffffffffffffffffffffffffffffffffffff1673ffffffffffffffffffffffffffffffffffffffff163373ffffffffffffffffffffffffffffffffffffffff1614151561067057600080fd5b6000809054906101000a900473ffffffffffffffffffffffffffffffffffffffff1673ffffffffffffffffffffffffffffffffffffffff16638456cb596040518163ffffffff167c0100000000000000000000000000000000000000000000000000000000028152600401600060405180830381600087803b1580156106f557600080fd5b505af1158015610709573d6000803e3d6000fd5b50505050565b6000809054906101000a900473ffffffffffffffffffffffffffffffffffffffff1681565b600160009054906101000a900473ffffffffffffffffffffffffffffffffffffffff16815600a165627a7a72305820df286e77cf3657d82ea8b55b52d23c144024ea84021598d59060accb59f12b590029",
  "compiler": {
    "name": "solc",
    "version": "0.4.26+commit.4563c3fc.Emscripten.clang",
    "optimizer": {
      "enabled": false,
      "runs": 200
    },
    "evmVersion": "byzantium"
  }
}