{
  "fileName": "MasterProxy.sol",
  "contractName": "MasterProxy",
  "source": "pragma solidity ^0.4.24;\n\nimport \"./ProxyBase.sol\";\n\n/**\n * @title MasterProxy\n * @dev The default target to which UniversalProxy delegates execution.\n *      Implements various administrative functions, allowing a controller\n *      address to selectively upgrade parts of the application.\n */\ncontract MasterProxy is ProxyBase {\n\n  /**\n   * @dev Only the controller address can access functions with this modifier\n   */\n  modifier onlyController {\n    require(msg.sender == controller);\n    _;\n  }\n\n  /**\n   * @dev Fallback function. Delegates execution to the correct target, based\n   *      on the function selector included with the transaction\n   */\n  function () external payable {\n    require(!paused, \"Contract is paused\");\n\n    // Get target from msg.sig\n    address target = targets[PROXY_TARGETS][msg.sig];\n    require(target != 0, \"Invalid execution target\");\n    \n    assembly {\n      // Copy all calldata to mem @ 0x00\n      calldatacopy(0, 0, calldatasize)\n\n      // Delegatecall the target. Copy its returndata\n      let res := delegatecall(gas, target, 0, calldatasize, 0, 0)\n      returndatacopy(0, 0, returndatasize)\n\n      // If we got an error, revert data to sender. Otherwise, return data\n      switch res\n      case 0 { revert(0, returndatasize) }\n      default { return(0, returndatasize) }\n    }\n  }\n\n  /**\n   * @dev Allows the controller to transfer permissions to a new address\n   * @param newController The address to which permissions will be transferred\n   */\n  function changeController(address newController) external onlyController {\n    controller = newController;\n  }\n\n  /**\n   * @dev Allows the controller to flip the pause status of the application\n   */\n  function pause() external onlyController {\n    paused = !paused; // Flips the bool on or off\n  }\n\n  /**\n   * @dev Allows the controller to set a new master address. Note that *this contract*\n   *      is deployed at the master address by default.\n   * @param newMaster The new default delegate target for the universal proxy\n   */\n  function setMaster(address newMaster) external onlyController {\n    require(isContract(newMaster), \"Invalid master address\");\n    master = newMaster;\n  }\n\n  /**\n   * @dev Returns the master address of the universal proxy that is calling this contract.\n   * @return The master address of the universal proxy\n   */\n  function getMaster() external view returns (address) {\n    return master;\n  }\n\n  /** \n   * @dev Returns the controller address of the universal proxy that is calling this contract.\n   * @return The controller address of the universal proxy\n   */\n  function getController() external view returns (address) {\n    return controller;\n  }\n\n  /**\n   * @dev Allows the controller to set a delegate target for a function selector\n   * @param functionSel The function selector for which routing is adjusted\n   * @param newTarget The new destination to which calls with the selector will be routed\n   */\n  function setTarget(bytes4 functionSel, address newTarget) external onlyController {\n    require(isContract(newTarget), \"Invalid target address\");\n    targets[PROXY_TARGETS][functionSel] = newTarget;\n  }\n\n  /**\n   * @dev Returns the address to which execution is delegated for a given function selector\n   * @param functionSel The function selector to check\n   * @return address The address to which execution will be delegated for the selector\n   */\n  function getTarget(bytes4 functionSel) external view returns (address) {\n    return targets[PROXY_TARGETS][functionSel];\n  }\n\n  /**\n   * @dev Returns whether or not the address contains code. Note that contracts have\n   *      extcodesize 0 during construction.\n   * @param a The address to check\n   * @return valid True if the address has a nonzero extcodesize\n   */\n\n  function isContract(address a) internal view returns (bool valid) {\n    assembly { valid := extcodesize(a) }\n  }\n}\n",
  "sourcePath": "contracts/proxy/MasterProxy.sol",
  "abi": [
    {
      "constant": false,
      "inputs": [
        {
          "name": "functionSel",
          "type": "bytes4"
        },
        {
          "name": "newTarget",
          "type": "address"
        }
      ],
      "name": "setTarget",
      "outputs": [],
      "payable": false,
      "stateMutability": "nonpayable",
      "type": "function"
    },
    {
      "constant": false,
      "inputs": [
        {
          "name": "newMaster",
          "type": "address"
        }
      ],
      "name": "setMaster",
      "outputs": [],
      "payable": false,
      "stateMutability": "nonpayable",
      "type": "function"
    },
    {
      "constant": true,
      "inputs": [],
      "name": "getController",
      "outputs": [
        {
          "name": "",
          "type": "address"
        }
      ],
      "payable": false,
      "stateMutability": "view",
      "type": "function"
    },
    {
      "constant": true,
      "inputs": [
        {
          "name": "functionSel",
          "type": "bytes4"
        }
      ],
      "name": "getTarget",
      "outputs": [
        {
          "name": "",
          "type": "address"
        }
      ],
      "payable": false,
      "stateMutability": "view",
      "type": "function"
    },
    {
      "constant": false,
      "inputs": [
        {
          "name": "newController",
          "type": "address"
        }
      ],
      "name": "changeController",
      "outputs": [],
      "payable": false,
      "stateMutability": "nonpayable",
      "type": "function"
    },
    {
      "constant": true,
      "inputs": [],
      "name": "getMaster",
      "outputs": [
        {
          "name": "",
          "type": "address"
        }
      ],
      "payable": false,
      "stateMutability": "view",
      "type": "function"
    },
    {
      "constant": false,
      "inputs": [],
      "name": "pause",
      "outputs": [],
      "payable": false,
      "stateMutability": "nonpayable",
      "type": "function"
    },
    {
      "payable": true,
      "stateMutability": "payable",
      "type": "fallback"
    }
  ],
  "bytecode": "0x608060405234801561001057600080fd5b50610a39806100206000396000f300608060405260043610610083576000357c0100000000000000000000000000000000000000000000000000000000900463ffffffff16806308af4b45146102a457806326fae0d3146103105780633018205f14610353578063374e4047146103aa5780633cebb823146104365780635a99719e146104795780638456cb59146104d0575b6000600160149054906101000a900460ff1615151561010a576040517f08c379a00000000000000000000000000000000000000000000000000000000081526004018080602001828103825260128152602001807f436f6e747261637420697320706175736564000000000000000000000000000081525060200191505060405180910390fd5b6002600060405180807f50524f58595f5441524745545300000000000000000000000000000000000000815250600d019050604051809103902060001916600019168152602001908152602001600020600080357fffffffff00000000000000000000000000000000000000000000000000000000167bffffffffffffffffffffffffffffffffffffffffffffffffffffffff19167bffffffffffffffffffffffffffffffffffffffffffffffffffffffff1916815260200190815260200160002060009054906101000a900473ffffffffffffffffffffffffffffffffffffffff16905060008173ffffffffffffffffffffffffffffffffffffffff161415151561027e576040517f08c379a00000000000000000000000000000000000000000000000000000000081526004018080602001828103825260188152602001807f496e76616c696420657865637574696f6e20746172676574000000000000000081525060200191505060405180910390fd5b3660008037600080366000845af43d6000803e806000811461029f573d6000f35b3d6000fd5b3480156102b057600080fd5b5061030e60048036038101908080357bffffffffffffffffffffffffffffffffffffffffffffffffffffffff19169060200190929190803573ffffffffffffffffffffffffffffffffffffffff1690602001909291905050506104e7565b005b34801561031c57600080fd5b50610351600480360381019080803573ffffffffffffffffffffffffffffffffffffffff1690602001909291905050506106a2565b005b34801561035f57600080fd5b506103686107be565b604051808273ffffffffffffffffffffffffffffffffffffffff1673ffffffffffffffffffffffffffffffffffffffff16815260200191505060405180910390f35b3480156103b657600080fd5b506103f460048036038101908080357bffffffffffffffffffffffffffffffffffffffffffffffffffffffff191690602001909291905050506107e8565b604051808273ffffffffffffffffffffffffffffffffffffffff1673ffffffffffffffffffffffffffffffffffffffff16815260200191505060405180910390f35b34801561044257600080fd5b50610477600480360381019080803573ffffffffffffffffffffffffffffffffffffffff1690602001909291905050506108b1565b005b34801561048557600080fd5b5061048e610951565b604051808273ffffffffffffffffffffffffffffffffffffffff1673ffffffffffffffffffffffffffffffffffffffff16815260200191505060405180910390f35b3480156104dc57600080fd5b506104e561097a565b005b600160009054906101000a900473ffffffffffffffffffffffffffffffffffffffff1673ffffffffffffffffffffffffffffffffffffffff163373ffffffffffffffffffffffffffffffffffffffff1614151561054357600080fd5b61054c81610a02565b15156105c0576040517f08c379a00000000000000000000000000000000000000000000000000000000081526004018080602001828103825260168152602001807f496e76616c69642074617267657420616464726573730000000000000000000081525060200191505060405180910390fd5b806002600060405180807f50524f58595f5441524745545300000000000000000000000000000000000000815250600d0190506040518091039020600019166000191681526020019081526020016000206000847bffffffffffffffffffffffffffffffffffffffffffffffffffffffff19167bffffffffffffffffffffffffffffffffffffffffffffffffffffffff1916815260200190815260200160002060006101000a81548173ffffffffffffffffffffffffffffffffffffffff021916908373ffffffffffffffffffffffffffffffffffffffff1602179055505050565b600160009054906101000a900473ffffffffffffffffffffffffffffffffffffffff1673ffffffffffffffffffffffffffffffffffffffff163373ffffffffffffffffffffffffffffffffffffffff161415156106fe57600080fd5b61070781610a02565b151561077b576040517f08c379a00000000000000000000000000000000000000000000000000000000081526004018080602001828103825260168152602001807f496e76616c6964206d617374657220616464726573730000000000000000000081525060200191505060405180910390fd5b806000806101000a81548173ffffffffffffffffffffffffffffffffffffffff021916908373ffffffffffffffffffffffffffffffffffffffff16021790555050565b6000600160009054906101000a900473ffffffffffffffffffffffffffffffffffffffff16905090565b60006002600060405180807f50524f58595f5441524745545300000000000000000000000000000000000000815250600d0190506040518091039020600019166000191681526020019081526020016000206000837bffffffffffffffffffffffffffffffffffffffffffffffffffffffff19167bffffffffffffffffffffffffffffffffffffffffffffffffffffffff1916815260200190815260200160002060009054906101000a900473ffffffffffffffffffffffffffffffffffffffff169050919050565b600160009054906101000a900473ffffffffffffffffffffffffffffffffffffffff1673ffffffffffffffffffffffffffffffffffffffff163373ffffffffffffffffffffffffffffffffffffffff1614151561090d57600080fd5b80600160006101000a81548173ffffffffffffffffffffffffffffffffffffffff021916908373ffffffffffffffffffffffffffffffffffffffff16021790555050565b60008060009054906101000a900473ffffffffffffffffffffffffffffffffffffffff16905090565b600160009054906101000a900473ffffffffffffffffffffffffffffffffffffffff1673ffffffffffffffffffffffffffffffffffffffff163373ffffffffffffffffffffffffffffffffffffffff161415156109d657600080fd5b600160149054906101000a900460ff1615600160146101000a81548160ff021916908315150217905550565b6000813b90509190505600a165627a7a7230582029e4ee7ee39ecd90aee0501c24a3aa0a87215408fb19d268cd5a4456b03632f20029",
  "compiler": {
    "name": "solc",
    "version": "0.4.26+commit.4563c3fc.Emscripten.clang",
    "optimizer": {
      "enabled": false,
      "runs": 200
    },
    "evmVersion": "byzantium"
  }
}