{
  "fileName": "NFTStandard.sol",
  "contractName": "NFTApprovals",
  "source": "pragma solidity ^0.4.24;\nimport \"./NFTBase.sol\";\n\n/// @dev Note: the ERC-165 identifier for this interface is 0x150b7a02.\ninterface ERC721TokenReceiver {\n    /// @notice Handle the receipt of an NFT\n    /// @dev The ERC721 smart contract calls this function on the recipient\n    ///  after a `transfer`. This function MAY throw to revert and reject the\n    ///  transfer. Return of other than the magic value MUST result in the\n    ///  transaction being reverted.\n    ///  Note: the contract address is always the message sender.\n    /// @param _operator The address which called `safeTransferFrom` function\n    /// @param _from The address which previously owned the token\n    /// @param _tokenId The NFT identifier which is being transferred\n    /// @param _data Additional data with no specified format\n    /// @return `bytes4(keccak256(\"onERC721Received(address,address,uint256,bytes)\"))`\n    ///  unless throwing\n    function onERC721Received(address _operator, address _from, uint256 _tokenId, bytes _data) external returns(bytes4);\n}\n\ncontract NFTBase {\n\n\tevent Approval(address indexed _owner, address indexed _approved, uint256 indexed _tokenId);\n  event Transfer(address indexed _from, address indexed _to, uint256 indexed _tokenId);\n  event ApprovalForAll(address indexed _owner, address indexed _operator, bool _approved);\n\n\taddress master;\n\taddress controller;\n\tbool paused;\n\t// mapping (bytes32 => mapping(bytes4 => address)) targets;\n\n\tbytes32 constant NFT_BASE = keccak256(\"NFT_BASE\");\n\n\tmapping (bytes32 => NFTLib.NFT) state;\n\n\tfunction getBase() internal view returns (NFTLib.NFT storage nft) {\n\t\treturn state[NFT_BASE];\n\t}\n}\n\ncontract NFTTransfers is NFTBase {\n\n\tusing NFTLib for NFTLib.NFT;\n\n\tfunction safeTransferFrom(address _from, address _to, uint _tokenId) external payable {\n\t\tNFTLib.NFT storage nft = getBase();\n\t\taddress owner = nft.ownerOf(_tokenId);\n\t\trequire(owner == _from && owner != 0 && _to != 0);\n\t\trequire(senderCanTransfer(nft, owner, _from, _tokenId));\n\t\t_transferFrom(nft, _from, _to, _tokenId);\n\t\tif (isContract(_to))\n\t\t\trequire(ERC721TokenReceiver(_to).onERC721Received(msg.sender, _from, _tokenId, \"\") == bytes4(keccak256(\"onERC721Received(address,address,uint256,bytes)\")));\n\t\temit Transfer(_from, _to, _tokenId);\n\t}\n\n\tfunction safeTransferFrom(address _from, address _to, uint _tokenId, bytes _data) external payable {\n\t\tNFTLib.NFT storage nft = getBase();\n\t\taddress owner = nft.ownerOf(_tokenId);\n\t\trequire(owner == _from && owner != 0 && _to != 0);\n\t\trequire(senderCanTransfer(nft, owner, _from, _tokenId));\n\t\t_transferFrom(nft, _from, _to, _tokenId);\n\t\tif (isContract(_to))\n\t\t\trequire(ERC721TokenReceiver(_to).onERC721Received(msg.sender, _from, _tokenId, _data) == bytes4(keccak256(\"onERC721Received(address,address,uint256,bytes)\")));\n\t\temit Transfer(_from, _to, _tokenId);\n\t}\n\n\tfunction transferFrom(address _from, address _to, uint _tokenId) external payable {\n\t\tNFTLib.NFT storage nft = getBase();\n\t\taddress owner = nft.ownerOf(_tokenId);\n\t\trequire(owner == _from && owner != 0 && _to != 0);\n\t\trequire(senderCanTransfer(nft, owner, _from, _tokenId));\n\t\t_transferFrom(nft, _from, _to, _tokenId);\n\t\temit Transfer(_from, _to, _tokenId);\n\t}\n\n\tfunction senderCanTransfer(NFTLib.NFT storage _nft, address _owner, address _from, uint _tokenId) internal view returns (bool) {\n\t\treturn (\n\t\t\t_owner == msg.sender ||\n\t\t\t_nft.approvedFor(_tokenId) == msg.sender ||\n\t\t\t_nft.isOperator(_from, msg.sender)\n\t\t);\n\t}\n\n\tfunction _transferFrom(NFTLib.NFT storage _nft, address _from, address _to, uint _tokenId) internal {\n\t\t_nft.clearApproved(_tokenId);\n\t\t_nft.removeFromOwned(_from, _tokenId);\n\t\t_nft.addToOwned(_to, _tokenId);\n\t}\n\t//Checks if an account is a contract or is being constructed\n\tfunction isContract(address _addr) private view returns (bool){\n      uint32 size;\n      assembly {\n        size := extcodesize(_addr)\n      }\n      return (size > 0);\n    }\n}\n\ncontract NFTApprovals is NFTTransfers {\n\n\tusing NFTLib for NFTLib.NFT;\n\n\tfunction approve(address _approved, uint _tokenId) external payable {\n\t\tNFTLib.NFT storage nft = getBase();\n\t\taddress owner = nft.ownerOf(_tokenId);\n\t\trequire(owner == msg.sender || nft.isOperator(owner, msg.sender));\n\t\tnft.setApprovedFor(_approved, _tokenId);\n\t\temit Approval(owner, _approved, _tokenId);\n\t}\n\n\tfunction setApprovalForAll(address _operator, bool _approved) external {\n\t\tNFTLib.NFT storage nft = getBase();\n\t\tnft.setOperator(msg.sender, _operator, _approved);\n\t\temit ApprovalForAll(msg.sender, _operator, _approved);\n\t}\n}\n\ncontract NFTGetters is NFTApprovals {\n\n\tusing NFTLib for NFTLib.NFT;\n\n\tfunction name() external pure returns (string) {\n\t\treturn \"Bill of Lading\";\n\t}\n\n\tfunction symbol() external pure returns (string) {\n\t\treturn \"BOL\";\n\t}\n\n\tfunction totalSupply() external view returns (uint) {\n\t\treturn getBase().totalSupply();\n\t}\n\n\t/**\n   * @dev Count all of the nfts owned by the _owner\n   * @notice Throws if owner is zero address\n   * @param _owner The owner of the nfts\n   * @return Returns a count of the nfts owned by the _owner\n   */\n  function balanceOf(address _owner) external view returns (uint) {\n    require(_owner != address(0));\n\t\treturn getBase().balanceOf(_owner);\n  }\n\n  /**\n   * @dev Get the approved address of the specified token\n   * @notice Throws if the token is invalid\n   * @param _tokenId The token being queried\n   * @return The approved address of the specified token\n   */\n  function getApproved(uint _tokenId) external view returns (address) {\n    require(getBase().ownerOf(_tokenId) != address(0));\n    return getBase().approvedFor(_tokenId);\n  }\n\n  function supportsInterface(bytes4 _id) external view returns (bool) {\n    return getBase().supportsInterface(_id); \n  }\n\n  /**\n   * @notice Query if an address is an authorized operator for another address\n   * @param _owner The address that owns the NFTs\n   * @param _operator The address that acts on behalf of the owner\n   * @return True if `_operator` is an approved operator for `_owner`, false otherwise\n   */\n  function isApprovedForAll(address _owner, address _operator) external view returns (bool) {\n\t\treturn getBase().isOperator(_owner, _operator);\n  }\n\n  /**\n   * @dev Returns the owner address of the specified token\n   * @notice Throws if the specified token is invalid\n   * @param _tokenId The id of the specified nft token\n   * @return The address of the owner of the token\n   */\n  function ownerOf(uint256 _tokenId) external view returns (address) {\n\t\taddress owner = getBase().ownerOf(_tokenId);\n  \trequire(owner != 0);\n    return owner;\n  }\n\n  /// @notice Enumerate valid NFTs\n  /// @dev Throws if `_index` >= `totalSupply()`.\n  /// @param _index A counter less than `totalSupply()`\n  /// @return The token identifier for the `_index`th NFT,\n  ///  (sort order not specified)\n  function tokenByIndex(uint256 _index) external view returns (uint256){\n    NFTLib.NFT storage nft = getBase();\n    require(nft.totalSupply() > _index , \"That index doesn\\'t exist\");\n    return(nft.registry[_index]);\n  }\n\n  /// @notice Enumerate NFTs assigned to an owner\n  /// @dev Throws if `_index` >= `balanceOf(_owner)` or if\n  ///  `_owner` is the zero address, representing invalid NFTs.\n  /// @param _owner An address where we are interested in NFTs owned by them\n  /// @param _index A counter less than `balanceOf(_owner)`\n  /// @return The token identifier for the `_index`th NFT assigned to `_owner`,\n  ///   (sort order not specified)\n  function tokenOfOwnerByIndex(address _owner, uint256 _index) external view returns (uint256){\n    require(_owner != address(0), \"Please select a valid index\");\n    NFTLib.NFT storage nft = getBase();\n    require(nft.users.tokensByOwner[_owner].length > _index , \"That token doesn\\'t exist for this owner\");\n    return(nft.users.tokensByOwner[_owner][_index]);\n  }\n}\n",
  "sourcePath": "contracts/nft/NFTStandard.sol",
  "abi": [
    {
      "constant": false,
      "inputs": [
        {
          "name": "_approved",
          "type": "address"
        },
        {
          "name": "_tokenId",
          "type": "uint256"
        }
      ],
      "name": "approve",
      "outputs": [],
      "payable": true,
      "stateMutability": "payable",
      "type": "function"
    },
    {
      "constant": false,
      "inputs": [
        {
          "name": "_from",
          "type": "address"
        },
        {
          "name": "_to",
          "type": "address"
        },
        {
          "name": "_tokenId",
          "type": "uint256"
        }
      ],
      "name": "transferFrom",
      "outputs": [],
      "payable": true,
      "stateMutability": "payable",
      "type": "function"
    },
    {
      "constant": false,
      "inputs": [
        {
          "name": "_from",
          "type": "address"
        },
        {
          "name": "_to",
          "type": "address"
        },
        {
          "name": "_tokenId",
          "type": "uint256"
        }
      ],
      "name": "safeTransferFrom",
      "outputs": [],
      "payable": true,
      "stateMutability": "payable",
      "type": "function"
    },
    {
      "constant": false,
      "inputs": [
        {
          "name": "_operator",
          "type": "address"
        },
        {
          "name": "_approved",
          "type": "bool"
        }
      ],
      "name": "setApprovalForAll",
      "outputs": [],
      "payable": false,
      "stateMutability": "nonpayable",
      "type": "function"
    },
    {
      "constant": false,
      "inputs": [
        {
          "name": "_from",
          "type": "address"
        },
        {
          "name": "_to",
          "type": "address"
        },
        {
          "name": "_tokenId",
          "type": "uint256"
        },
        {
          "name": "_data",
          "type": "bytes"
        }
      ],
      "name": "safeTransferFrom",
      "outputs": [],
      "payable": true,
      "stateMutability": "payable",
      "type": "function"
    },
    {
      "anonymous": false,
      "inputs": [
        {
          "indexed": true,
          "name": "_owner",
          "type": "address"
        },
        {
          "indexed": true,
          "name": "_approved",
          "type": "address"
        },
        {
          "indexed": true,
          "name": "_tokenId",
          "type": "uint256"
        }
      ],
      "name": "Approval",
      "type": "event"
    },
    {
      "anonymous": false,
      "inputs": [
        {
          "indexed": true,
          "name": "_from",
          "type": "address"
        },
        {
          "indexed": true,
          "name": "_to",
          "type": "address"
        },
        {
          "indexed": true,
          "name": "_tokenId",
          "type": "uint256"
        }
      ],
      "name": "Transfer",
      "type": "event"
    },
    {
      "anonymous": false,
      "inputs": [
        {
          "indexed": true,
          "name": "_owner",
          "type": "address"
        },
        {
          "indexed": true,
          "name": "_operator",
          "type": "address"
        },
        {
          "indexed": false,
          "name": "_approved",
          "type": "bool"
        }
      ],
      "name": "ApprovalForAll",
      "type": "event"
    }
  ],
  "bytecode": "0x608060405234801561001057600080fd5b50611286806100206000396000f30060806040526004361061006d576000357c0100000000000000000000000000000000000000000000000000000000900463ffffffff168063095ea7b31461007257806323b872dd146100b257806342842e0e14610112578063a22cb46514610172578063b88d4fde146101c1575b600080fd5b6100b0600480360381019080803573ffffffffffffffffffffffffffffffffffffffff16906020019092919080359060200190929190505050610239565b005b610110600480360381019080803573ffffffffffffffffffffffffffffffffffffffff169060200190929190803573ffffffffffffffffffffffffffffffffffffffff16906020019092919080359060200190929190505050610327565b005b610170600480360381019080803573ffffffffffffffffffffffffffffffffffffffff169060200190929190803573ffffffffffffffffffffffffffffffffffffffff1690602001909291908035906020019092919050505061044e565b005b34801561017e57600080fd5b506101bf600480360381019080803573ffffffffffffffffffffffffffffffffffffffff169060200190929190803515159060200190929190505050610750565b005b610237600480360381019080803573ffffffffffffffffffffffffffffffffffffffff169060200190929190803573ffffffffffffffffffffffffffffffffffffffff169060200190929190803590602001909291908035906020019082018035906020019190919293919293905050506107e1565b005b600080610244610af3565b91506102598383610b4a90919063ffffffff16565b90503373ffffffffffffffffffffffffffffffffffffffff168173ffffffffffffffffffffffffffffffffffffffff1614806102a657506102a5813384610b8d9092919063ffffffff16565b5b15156102b157600080fd5b6102c6848484610c279092919063ffffffff16565b828473ffffffffffffffffffffffffffffffffffffffff168273ffffffffffffffffffffffffffffffffffffffff167f8c5be1e5ebec7d5bd14f71427d1e84f3dd0314c0f7b2291e5b200ac8c7c3b92560405160405180910390a450505050565b600080610332610af3565b91506103478383610b4a90919063ffffffff16565b90508473ffffffffffffffffffffffffffffffffffffffff168173ffffffffffffffffffffffffffffffffffffffff1614801561039b575060008173ffffffffffffffffffffffffffffffffffffffff1614155b80156103be575060008473ffffffffffffffffffffffffffffffffffffffff1614155b15156103c957600080fd5b6103d582828786610c83565b15156103e057600080fd5b6103ec82868686610d22565b828473ffffffffffffffffffffffffffffffffffffffff168673ffffffffffffffffffffffffffffffffffffffff167fddf252ad1be2c89b69c2b068fc378daa952ba7f163c4a11628f55a4df523b3ef60405160405180910390a45050505050565b600080610459610af3565b915061046e8383610b4a90919063ffffffff16565b90508473ffffffffffffffffffffffffffffffffffffffff168173ffffffffffffffffffffffffffffffffffffffff161480156104c2575060008173ffffffffffffffffffffffffffffffffffffffff1614155b80156104e5575060008473ffffffffffffffffffffffffffffffffffffffff1614155b15156104f057600080fd5b6104fc82828786610c83565b151561050757600080fd5b61051382868686610d22565b61051c84610d65565b156106ee5760405180807f6f6e455243373231526563656976656428616464726573732c6164647265737381526020017f2c75696e743235362c6279746573290000000000000000000000000000000000815250602f01905060405180910390207bffffffffffffffffffffffffffffffffffffffffffffffffffffffff19168473ffffffffffffffffffffffffffffffffffffffff1663150b7a023388876040518463ffffffff167c0100000000000000000000000000000000000000000000000000000000028152600401808473ffffffffffffffffffffffffffffffffffffffff1673ffffffffffffffffffffffffffffffffffffffff1681526020018373ffffffffffffffffffffffffffffffffffffffff1673ffffffffffffffffffffffffffffffffffffffff16815260200182815260200180602001828103825260008152602001602001945050505050602060405180830381600087803b15801561068757600080fd5b505af115801561069b573d6000803e3d6000fd5b505050506040513d60208110156106b157600080fd5b81019080805190602001909291905050507bffffffffffffffffffffffffffffffffffffffffffffffffffffffff19161415156106ed57600080fd5b5b828473ffffffffffffffffffffffffffffffffffffffff168673ffffffffffffffffffffffffffffffffffffffff167fddf252ad1be2c89b69c2b068fc378daa952ba7f163c4a11628f55a4df523b3ef60405160405180910390a45050505050565b600061075a610af3565b905061077333848484610d7e909392919063ffffffff16565b8273ffffffffffffffffffffffffffffffffffffffff163373ffffffffffffffffffffffffffffffffffffffff167f17307eab39ab6107e8899845ad3d59bd9653f200f220920489ca2b5937696c3184604051808215151515815260200191505060405180910390a3505050565b6000806107ec610af3565b91506108018583610b4a90919063ffffffff16565b90508673ffffffffffffffffffffffffffffffffffffffff168173ffffffffffffffffffffffffffffffffffffffff16148015610855575060008173ffffffffffffffffffffffffffffffffffffffff1614155b8015610878575060008673ffffffffffffffffffffffffffffffffffffffff1614155b151561088357600080fd5b61088f82828988610c83565b151561089a57600080fd5b6108a682888888610d22565b6108af86610d65565b15610a8f5760405180807f6f6e455243373231526563656976656428616464726573732c6164647265737381526020017f2c75696e743235362c6279746573290000000000000000000000000000000000815250602f01905060405180910390207bffffffffffffffffffffffffffffffffffffffffffffffffffffffff19168673ffffffffffffffffffffffffffffffffffffffff1663150b7a02338a8989896040518663ffffffff167c0100000000000000000000000000000000000000000000000000000000028152600401808673ffffffffffffffffffffffffffffffffffffffff1673ffffffffffffffffffffffffffffffffffffffff1681526020018573ffffffffffffffffffffffffffffffffffffffff1673ffffffffffffffffffffffffffffffffffffffff16815260200184815260200180602001828103825284848281815260200192508082843782019150509650505050505050602060405180830381600087803b158015610a2857600080fd5b505af1158015610a3c573d6000803e3d6000fd5b505050506040513d6020811015610a5257600080fd5b81019080805190602001909291905050507bffffffffffffffffffffffffffffffffffffffffffffffffffffffff1916141515610a8e57600080fd5b5b848673ffffffffffffffffffffffffffffffffffffffff168873ffffffffffffffffffffffffffffffffffffffff167fddf252ad1be2c89b69c2b068fc378daa952ba7f163c4a11628f55a4df523b3ef60405160405180910390a450505050505050565b60006002600060405180807f4e46545f424153450000000000000000000000000000000000000000000000008152506008019050604051809103902060001916600019168152602001908152602001600020905090565b600082600201600001600083815260200190815260200160002060009054906101000a900473ffffffffffffffffffffffffffffffffffffffff16905092915050565b60008360070160000160008473ffffffffffffffffffffffffffffffffffffffff1673ffffffffffffffffffffffffffffffffffffffff16815260200190815260200160002060008373ffffffffffffffffffffffffffffffffffffffff1673ffffffffffffffffffffffffffffffffffffffff16815260200190815260200160002060009054906101000a900460ff1690509392505050565b8183600201600101600083815260200190815260200160002060006101000a81548173ffffffffffffffffffffffffffffffffffffffff021916908373ffffffffffffffffffffffffffffffffffffffff160217905550505050565b60003373ffffffffffffffffffffffffffffffffffffffff168473ffffffffffffffffffffffffffffffffffffffff161480610cfc57503373ffffffffffffffffffffffffffffffffffffffff16610ce48387610e1d90919063ffffffff16565b73ffffffffffffffffffffffffffffffffffffffff16145b80610d185750610d17833387610b8d9092919063ffffffff16565b5b9050949350505050565b610d358185610e6090919063ffffffff16565b610d4a838286610e9f9092919063ffffffff16565b610d5f8282866110889092919063ffffffff16565b50505050565b600080823b905060008163ffffffff1611915050919050565b808460070160000160008573ffffffffffffffffffffffffffffffffffffffff1673ffffffffffffffffffffffffffffffffffffffff16815260200190815260200160002060008473ffffffffffffffffffffffffffffffffffffffff1673ffffffffffffffffffffffffffffffffffffffff16815260200190815260200160002060006101000a81548160ff02191690831515021790555050505050565b600082600201600101600083815260200190815260200160002060009054906101000a900473ffffffffffffffffffffffffffffffffffffffff16905092915050565b81600201600101600082815260200190815260200160002060006101000a81549073ffffffffffffffffffffffffffffffffffffffff02191690555050565b6000806000610eae8686611178565b92508560070160010160008673ffffffffffffffffffffffffffffffffffffffff1673ffffffffffffffffffffffffffffffffffffffff168152602001908152602001600020610f086001856111ca90919063ffffffff16565b815481101515610f1457fe5b90600052602060002001549150610f2b86856111e6565b90508560070160010160008673ffffffffffffffffffffffffffffffffffffffff1673ffffffffffffffffffffffffffffffffffffffff168152602001908152602001600020610f856001856111ca90919063ffffffff16565b815481101515610f9157fe5b9060005260206000200160009055610fb36001846111ca90919063ffffffff16565b8660070160010160008773ffffffffffffffffffffffffffffffffffffffff1673ffffffffffffffffffffffffffffffffffffffff168152602001908152602001600020816110029190611209565b50818660070160010160008773ffffffffffffffffffffffffffffffffffffffff1673ffffffffffffffffffffffffffffffffffffffff1681526020019081526020016000208281548110151561105557fe5b90600052602060002001819055508086600201600401600084815260200190815260200160002081905550505050505050565b8183600201600001600083815260200190815260200160002060006101000a81548173ffffffffffffffffffffffffffffffffffffffff021916908373ffffffffffffffffffffffffffffffffffffffff1602179055506110e98383611178565b836002016004016000838152602001908152602001600020819055508260070160010160008373ffffffffffffffffffffffffffffffffffffffff1673ffffffffffffffffffffffffffffffffffffffff168152602001908152602001600020819080600181540180825580915050906001820390600052602060002001600090919290919091505550505050565b60008260070160010160008373ffffffffffffffffffffffffffffffffffffffff1673ffffffffffffffffffffffffffffffffffffffff16815260200190815260200160002080549050905092915050565b60008183101515156111db57600080fd5b818303905092915050565b600082600201600401600083815260200190815260200160002054905092915050565b8154818355818111156112305781836000526020600020918201910161122f9190611235565b5b505050565b61125791905b8082111561125357600081600090555060010161123b565b5090565b905600a165627a7a723058206102e59f9b1bc201a3a72015eb27ad60b2adfdbf9c162fe3af8ad9c355ba073a0029",
  "compiler": {
    "name": "solc",
    "version": "0.4.26+commit.4563c3fc.Emscripten.clang",
    "optimizer": {
      "enabled": false,
      "runs": 200
    },
    "evmVersion": "byzantium"
  }
}