{
  "fileName": "NFTRecordsExtension.sol",
  "contractName": "NFTExtended",
  "source": "pragma solidity ^0.4.24;\nimport \"./NFTStandard.sol\";\n\ncontract NFTExtended is NFTGetters {\n    using SafeMath for uint;\n\n    bytes4 internal constant TRANSFER_SEL = bytes4(keccak256('Transfer(address,address,uint256)'));\n    bytes4 internal constant CREATE_OWNER_SEL = bytes4(keccak256('CreateRecordOwner(bytes32,address)'));\n    bytes4 internal constant CREATE_PARTICIPANT_SEL = bytes4(keccak256('CreateRecordParticipant(bytes32,address)'));\n    bytes4 internal constant VERSION_SIGNED_SEL = bytes4(keccak256('VersionRecord(bytes32,bytes32)'));\n    string internal constant GETH_STRING = \"\\x19Ethereum Signed Message:\\n32\";\n\n    event RecordCreated(uint indexed locator, address owner, address participant);\n    event RecordUpdated(uint indexed record, uint indexed updated, address owner);\n\n\tusing NFTLib for NFTLib.NFT;\n\n\n\t/**\n     * @dev Transfers an NFT token if the message representing the transaction was signed by _from\n     * @param _from The address that should own NFT at the start of the transaction\n     * @param _to The recipient of the transfer\n     * @param _tokenId The id of the token to be transferred\n     * @param _sig The signature that may authorize the transfer\n     */\n\tfunction signedTransfer(address _from, address _to, uint _tokenId, bytes _sig) external {\n\t\tNFTLib.NFT storage nft = getBase();\n\t\taddress owner = nft.ownerOf(_tokenId);\n\t\t// _from must be the owner, and owner and _to must be nonzero addresses\n        require(owner == _from && owner != 0 && _to != 0);\n        uint nonce = nft.nonceOf(_from);\n        // Construct the hash of the message that should have been signed\n        bytes32 signHash = getHash(nonce, TRANSFER_SEL, _from, _to, bytes32(_tokenId));\n\n        // Ensure that the `_from` address signed the correct message\n        require(ecrecoverWithSig(signHash, _sig) == _from);\n        // Increment the from address's nonce\n    \tnft.setNonceOf(_from, nonce.add(1));\n        // Transfer the token and emit event\n        _transferFrom(nft, _from, _to, _tokenId);\n        emit Transfer(_from, _to, _tokenId);\n\t}\n\n\tfunction createRecord(bytes32 _record, address _participant, bytes _sOwner, bytes _sPart) external {\n\t\tNFTLib.NFT storage nft = getBase();\n\t\trequire(nft.doesExist(uint(_record)) == false);\n\n\t\tuint ownerNonce = nft.nonceOf(msg.sender);\n\t\tuint partNonce = nft.nonceOf(_participant);\n\t\tbytes32 ownerSignHash = getHash(ownerNonce, CREATE_OWNER_SEL, msg.sender, _participant, _record);\n\t\tbytes32 partSignHash = getHash(partNonce, CREATE_PARTICIPANT_SEL, msg.sender, _participant, _record);\n\n\t\trequire(ecrecoverWithSig(ownerSignHash, _sOwner) == msg.sender);\n\t\trequire(ecrecoverWithSig(partSignHash, _sPart) == _participant);\n\n\t\tnft.tokens.exists[uint(_record)] = true;\n\t\tnft.addToOwned(msg.sender, uint(_record));\n\t}\n\n\t function versionRecord(bytes32 _record, bytes32 _updated) external{\n\t\t NFTLib.NFT storage nft = getBase();\n\t\t require((msg.sender == nft.ownerOf(uint(_record))) || (msg.sender == nft.approvedFor(uint(_record))),\n\t\t \t\t\t\t\t\"The sender must be the owner\");\n\t\t require(!nft.doesExist(uint(_updated)), \"Record Already Exists\");\n\n\t\t nft.tokens.exists[uint(_updated)] = true;\n \t\t nft.addToOwned(msg.sender, uint(_updated));\n\t\t nft.removeFromOwned(msg.sender, uint(_record));\n\t\t nft.tokens.URIOf[uint(_updated)] = _record;\n\t }\n\n\t function versionRecordSigned(bytes32 _record, bytes32 _updated, bytes _sig) external{\n\t\tNFTLib.NFT storage nft = getBase();\n\t\trequire(!nft.doesExist(uint(_updated)), \"Record Already Exists\");\n\t\taddress _owner = nft.ownerOf(uint(_record));\n\n\t\tbytes4 sel = VERSION_SIGNED_SEL;\n        uint owner_nonce = nft.nonceOf(_owner);\n        bytes32 message_hash;\n\t\tassembly{\n\t\t \tlet free_ptr := mload(0x40)\n\t\t\t// Place the nonce, address of this contract, selector, _record, and _updated at the free memory pointer\n\t\t\tmstore(free_ptr, owner_nonce)\n\t\t\tmstore(add(free_ptr, 0x20), address)\n\t\t\tmstore(add(free_ptr, 0x40), sel)\n\t\t\tmstore(add(free_ptr, 0x44), _record)\n\t\t\tmstore(add(free_ptr, 0x64), _updated)\n\t\t\t// Compute the hash of the message\n\t\t\tmessage_hash := keccak256(free_ptr, 0x84)\n\t\t\t// Zero out the memory that was placed to compute the hash\n\t\t\tcodecopy(free_ptr, codesize, 0x84)\n\t\t}\n\t\tmessage_hash = keccak256(abi.encodePacked(GETH_STRING, message_hash));\n\t\taddress signer = ecrecoverWithSig(message_hash, _sig);\n\t\trequire((_owner == signer) || (nft.approvedFor(uint(_record)) == signer),\n\t\t \t\t\t\t\t\"Must be singed by the owner or approved address\");\n\n\t\tnft.tokens.exists[uint(_updated)] = true;\n \t\tnft.addToOwned(msg.sender, uint(_updated));\n\t\tnft.removeFromOwned(msg.sender, uint(_record));\n\t\tnft.tokens.URIOf[uint(_updated)] = _record;\n\t }\n\n\tfunction getHash(uint _nonce, bytes4 _func, address _a, address _b, bytes32 _record) internal view returns (bytes32 h) {\n\t\tassembly {\n\t\t\tlet ptr := mload(0x40)\n\t\t\tmstore(ptr, _nonce)\n\t\t\tmstore(add(0x20, ptr), address)\n\t\t\tmstore(add(0x40, ptr), _func)\n\t\t\tmstore(add(0x44, ptr), _a)\n\t\t\tmstore(add(0x64, ptr), _b)\n\t\t\tmstore(add(0x84, ptr), _record)\n\t\t\th := keccak256(ptr, 0xa4)\n\t\t}\n\t\th = keccak256(abi.encodePacked(GETH_STRING, h));\n\t}\n\n\tfunction ecrecoverWithSig(bytes32 _hash, bytes memory _sig) internal pure returns (address) {\n\t\tbytes32 r;\n  \tbytes32 s;\n  \tuint8 v;\n\t\trequire(_sig.length == 65);\n  \tassembly {\n    \ts := mload(add(_sig, 0x20))\n    \tr := mload(add(_sig, 0x40))\n    \tv := mload(add(_sig, 0x41)) // NOTE - should we clean this?\n  \t}\n  \tif(v < 27){\n    \tv += 27;\n  \t}\n  \treturn ecrecover(_hash, v, s, r);\n\t}\n}\n",
  "sourcePath": "contracts/nft/NFTRecordsExtension.sol",
  "abi": [
    {
      "constant": true,
      "inputs": [
        {
          "name": "_id",
          "type": "bytes4"
        }
      ],
      "name": "supportsInterface",
      "outputs": [
        {
          "name": "",
          "type": "bool"
        }
      ],
      "payable": false,
      "stateMutability": "view",
      "type": "function"
    },
    {
      "constant": true,
      "inputs": [],
      "name": "name",
      "outputs": [
        {
          "name": "",
          "type": "string"
        }
      ],
      "payable": false,
      "stateMutability": "pure",
      "type": "function"
    },
    {
      "constant": true,
      "inputs": [
        {
          "name": "_tokenId",
          "type": "uint256"
        }
      ],
      "name": "getApproved",
      "outputs": [
        {
          "name": "",
          "type": "address"
        }
      ],
      "payable": false,
      "stateMutability": "view",
      "type": "function"
    },
    {
      "constant": false,
      "inputs": [
        {
          "name": "_approved",
          "type": "address"
        },
        {
          "name": "_tokenId",
          "type": "uint256"
        }
      ],
      "name": "approve",
      "outputs": [],
      "payable": true,
      "stateMutability": "payable",
      "type": "function"
    },
    {
      "constant": true,
      "inputs": [],
      "name": "totalSupply",
      "outputs": [
        {
          "name": "",
          "type": "uint256"
        }
      ],
      "payable": false,
      "stateMutability": "view",
      "type": "function"
    },
    {
      "constant": false,
      "inputs": [
        {
          "name": "_from",
          "type": "address"
        },
        {
          "name": "_to",
          "type": "address"
        },
        {
          "name": "_tokenId",
          "type": "uint256"
        },
        {
          "name": "_sig",
          "type": "bytes"
        }
      ],
      "name": "signedTransfer",
      "outputs": [],
      "payable": false,
      "stateMutability": "nonpayable",
      "type": "function"
    },
    {
      "constant": false,
      "inputs": [
        {
          "name": "_record",
          "type": "bytes32"
        },
        {
          "name": "_participant",
          "type": "address"
        },
        {
          "name": "_sOwner",
          "type": "bytes"
        },
        {
          "name": "_sPart",
          "type": "bytes"
        }
      ],
      "name": "createRecord",
      "outputs": [],
      "payable": false,
      "stateMutability": "nonpayable",
      "type": "function"
    },
    {
      "constant": false,
      "inputs": [
        {
          "name": "_from",
          "type": "address"
        },
        {
          "name": "_to",
          "type": "address"
        },
        {
          "name": "_tokenId",
          "type": "uint256"
        }
      ],
      "name": "transferFrom",
      "outputs": [],
      "payable": true,
      "stateMutability": "payable",
      "type": "function"
    },
    {
      "constant": true,
      "inputs": [
        {
          "name": "_owner",
          "type": "address"
        },
        {
          "name": "_index",
          "type": "uint256"
        }
      ],
      "name": "tokenOfOwnerByIndex",
      "outputs": [
        {
          "name": "",
          "type": "uint256"
        }
      ],
      "payable": false,
      "stateMutability": "view",
      "type": "function"
    },
    {
      "constant": false,
      "inputs": [
        {
          "name": "_from",
          "type": "address"
        },
        {
          "name": "_to",
          "type": "address"
        },
        {
          "name": "_tokenId",
          "type": "uint256"
        }
      ],
      "name": "safeTransferFrom",
      "outputs": [],
      "payable": true,
      "stateMutability": "payable",
      "type": "function"
    },
    {
      "constant": true,
      "inputs": [
        {
          "name": "_index",
          "type": "uint256"
        }
      ],
      "name": "tokenByIndex",
      "outputs": [
        {
          "name": "",
          "type": "uint256"
        }
      ],
      "payable": false,
      "stateMutability": "view",
      "type": "function"
    },
    {
      "constant": false,
      "inputs": [
        {
          "name": "_record",
          "type": "bytes32"
        },
        {
          "name": "_updated",
          "type": "bytes32"
        },
        {
          "name": "_sig",
          "type": "bytes"
        }
      ],
      "name": "versionRecordSigned",
      "outputs": [],
      "payable": false,
      "stateMutability": "nonpayable",
      "type": "function"
    },
    {
      "constant": true,
      "inputs": [
        {
          "name": "_tokenId",
          "type": "uint256"
        }
      ],
      "name": "ownerOf",
      "outputs": [
        {
          "name": "",
          "type": "address"
        }
      ],
      "payable": false,
      "stateMutability": "view",
      "type": "function"
    },
    {
      "constant": true,
      "inputs": [
        {
          "name": "_owner",
          "type": "address"
        }
      ],
      "name": "balanceOf",
      "outputs": [
        {
          "name": "",
          "type": "uint256"
        }
      ],
      "payable": false,
      "stateMutability": "view",
      "type": "function"
    },
    {
      "constant": false,
      "inputs": [
        {
          "name": "_record",
          "type": "bytes32"
        },
        {
          "name": "_updated",
          "type": "bytes32"
        }
      ],
      "name": "versionRecord",
      "outputs": [],
      "payable": false,
      "stateMutability": "nonpayable",
      "type": "function"
    },
    {
      "constant": true,
      "inputs": [],
      "name": "symbol",
      "outputs": [
        {
          "name": "",
          "type": "string"
        }
      ],
      "payable": false,
      "stateMutability": "pure",
      "type": "function"
    },
    {
      "constant": false,
      "inputs": [
        {
          "name": "_operator",
          "type": "address"
        },
        {
          "name": "_approved",
          "type": "bool"
        }
      ],
      "name": "setApprovalForAll",
      "outputs": [],
      "payable": false,
      "stateMutability": "nonpayable",
      "type": "function"
    },
    {
      "constant": false,
      "inputs": [
        {
          "name": "_from",
          "type": "address"
        },
        {
          "name": "_to",
          "type": "address"
        },
        {
          "name": "_tokenId",
          "type": "uint256"
        },
        {
          "name": "_data",
          "type": "bytes"
        }
      ],
      "name": "safeTransferFrom",
      "outputs": [],
      "payable": true,
      "stateMutability": "payable",
      "type": "function"
    },
    {
      "constant": true,
      "inputs": [
        {
          "name": "_owner",
          "type": "address"
        },
        {
          "name": "_operator",
          "type": "address"
        }
      ],
      "name": "isApprovedForAll",
      "outputs": [
        {
          "name": "",
          "type": "bool"
        }
      ],
      "payable": false,
      "stateMutability": "view",
      "type": "function"
    },
    {
      "anonymous": false,
      "inputs": [
        {
          "indexed": true,
          "name": "locator",
          "type": "uint256"
        },
        {
          "indexed": false,
          "name": "owner",
          "type": "address"
        },
        {
          "indexed": false,
          "name": "participant",
          "type": "address"
        }
      ],
      "name": "RecordCreated",
      "type": "event"
    },
    {
      "anonymous": false,
      "inputs": [
        {
          "indexed": true,
          "name": "record",
          "type": "uint256"
        },
        {
          "indexed": true,
          "name": "updated",
          "type": "uint256"
        },
        {
          "indexed": false,
          "name": "owner",
          "type": "address"
        }
      ],
      "name": "RecordUpdated",
      "type": "event"
    },
    {
      "anonymous": false,
      "inputs": [
        {
          "indexed": true,
          "name": "_owner",
          "type": "address"
        },
        {
          "indexed": true,
          "name": "_approved",
          "type": "address"
        },
        {
          "indexed": true,
          "name": "_tokenId",
          "type": "uint256"
        }
      ],
      "name": "Approval",
      "type": "event"
    },
    {
      "anonymous": false,
      "inputs": [
        {
          "indexed": true,
          "name": "_from",
          "type": "address"
        },
        {
          "indexed": true,
          "name": "_to",
          "type": "address"
        },
        {
          "indexed": true,
          "name": "_tokenId",
          "type": "uint256"
        }
      ],
      "name": "Transfer",
      "type": "event"
    },
    {
      "anonymous": false,
      "inputs": [
        {
          "indexed": true,
          "name": "_owner",
          "type": "address"
        },
        {
          "indexed": true,
          "name": "_operator",
          "type": "address"
        },
        {
          "indexed": false,
          "name": "_approved",
          "type": "bool"
        }
      ],
      "name": "ApprovalForAll",
      "type": "event"
    }
  ],
  "bytecode": "0x608060405234801561001057600080fd5b50612bff806100206000396000f300608060405260043610610107576000357c0100000000000000000000000000000000000000000000000000000000900463ffffffff16806301ffc9a71461010c57806306fdde0314610170578063081812fc14610200578063095ea7b31461026d57806318160ddd146102ad578063185da2bf146102d8578063198722d61461035d57806323b872dd146103de5780632f745c591461043e57806342842e0e1461049f5780634f6ccce7146104ff57806359ea7111146105405780636352211e1461059757806370a08231146106045780638de37a841461065b57806395d89b411461069a578063a22cb4651461072a578063b88d4fde14610779578063e985e9c5146107f1575b600080fd5b34801561011857600080fd5b5061015660048036038101908080357bffffffffffffffffffffffffffffffffffffffffffffffffffffffff1916906020019092919050505061086c565b604051808215151515815260200191505060405180910390f35b34801561017c57600080fd5b5061018561088f565b6040518080602001828103825283818151815260200191508051906020019080838360005b838110156101c55780820151818401526020810190506101aa565b50505050905090810190601f1680156101f25780820380516001836020036101000a031916815260200191505b509250505060405180910390f35b34801561020c57600080fd5b5061022b600480360381019080803590602001909291905050506108cc565b604051808273ffffffffffffffffffffffffffffffffffffffff1673ffffffffffffffffffffffffffffffffffffffff16815260200191505060405180910390f35b6102ab600480360381019080803573ffffffffffffffffffffffffffffffffffffffff16906020019092919080359060200190929190505050610943565b005b3480156102b957600080fd5b506102c2610a31565b6040518082815260200191505060405180910390f35b3480156102e457600080fd5b5061035b600480360381019080803573ffffffffffffffffffffffffffffffffffffffff169060200190929190803573ffffffffffffffffffffffffffffffffffffffff16906020019092919080359060200190929190803590602001908201803590602001919091929391929390505050610a48565b005b34801561036957600080fd5b506103dc6004803603810190808035600019169060200190929190803573ffffffffffffffffffffffffffffffffffffffff169060200190929190803590602001908201803590602001919091929391929390803590602001908201803590602001919091929391929390505050610c7e565b005b61043c600480360381019080803573ffffffffffffffffffffffffffffffffffffffff169060200190929190803573ffffffffffffffffffffffffffffffffffffffff16906020019092919080359060200190929190505050610efc565b005b34801561044a57600080fd5b50610489600480360381019080803573ffffffffffffffffffffffffffffffffffffffff16906020019092919080359060200190929190505050611023565b6040518082815260200191505060405180910390f35b6104fd600480360381019080803573ffffffffffffffffffffffffffffffffffffffff169060200190929190803573ffffffffffffffffffffffffffffffffffffffff1690602001909291908035906020019092919050505061121e565b005b34801561050b57600080fd5b5061052a60048036038101908080359060200190929190505050611520565b6040518082815260200191505060405180910390f35b34801561054c57600080fd5b50610595600480360381019080803560001916906020019092919080356000191690602001909291908035906020019082018035906020019190919293919293905050506115d0565b005b3480156105a357600080fd5b506105c260048036038101908080359060200190929190505050611a00565b604051808273ffffffffffffffffffffffffffffffffffffffff1673ffffffffffffffffffffffffffffffffffffffff16815260200191505060405180910390f35b34801561061057600080fd5b50610645600480360381019080803573ffffffffffffffffffffffffffffffffffffffff169060200190929190505050611a4e565b6040518082815260200191505060405180910390f35b34801561066757600080fd5b5061069860048036038101908080356000191690602001909291908035600019169060200190929190505050611aac565b005b3480156106a657600080fd5b506106af611cda565b6040518080602001828103825283818151815260200191508051906020019080838360005b838110156106ef5780820151818401526020810190506106d4565b50505050905090810190601f16801561071c5780820380516001836020036101000a031916815260200191505b509250505060405180910390f35b34801561073657600080fd5b50610777600480360381019080803573ffffffffffffffffffffffffffffffffffffffff169060200190929190803515159060200190929190505050611d17565b005b6107ef600480360381019080803573ffffffffffffffffffffffffffffffffffffffff169060200190929190803573ffffffffffffffffffffffffffffffffffffffff16906020019092919080359060200190929190803590602001908201803590602001919091929391929390505050611da8565b005b3480156107fd57600080fd5b50610852600480360381019080803573ffffffffffffffffffffffffffffffffffffffff169060200190929190803573ffffffffffffffffffffffffffffffffffffffff1690602001909291905050506120ba565b604051808215151515815260200191505060405180910390f35b60006108888261087a6120e0565b61213790919063ffffffff16565b9050919050565b60606040805190810160405280600e81526020017f42696c6c206f66204c6164696e67000000000000000000000000000000000000815250905090565b60008073ffffffffffffffffffffffffffffffffffffffff166108ff836108f16120e0565b6121a290919063ffffffff16565b73ffffffffffffffffffffffffffffffffffffffff161415151561092257600080fd5b61093c8261092e6120e0565b6121e590919063ffffffff16565b9050919050565b60008061094e6120e0565b915061096383836121a290919063ffffffff16565b90503373ffffffffffffffffffffffffffffffffffffffff168173ffffffffffffffffffffffffffffffffffffffff1614806109b057506109af8133846122289092919063ffffffff16565b5b15156109bb57600080fd5b6109d08484846122c29092919063ffffffff16565b828473ffffffffffffffffffffffffffffffffffffffff168273ffffffffffffffffffffffffffffffffffffffff167f8c5be1e5ebec7d5bd14f71427d1e84f3dd0314c0f7b2291e5b200ac8c7c3b92560405160405180910390a450505050565b6000610a43610a3e6120e0565b61231e565b905090565b600080600080610a566120e0565b9350610a6b87856121a290919063ffffffff16565b92508873ffffffffffffffffffffffffffffffffffffffff168373ffffffffffffffffffffffffffffffffffffffff16148015610abf575060008373ffffffffffffffffffffffffffffffffffffffff1614155b8015610ae2575060008873ffffffffffffffffffffffffffffffffffffffff1614155b1515610aed57600080fd5b610b00898561232f90919063ffffffff16565b9150610b6d8260405180807f5472616e7366657228616464726573732c616464726573732c75696e7432353681526020017f2900000000000000000000000000000000000000000000000000000000000000815250602101905060405180910390208b8b8b60010261237e565b90508873ffffffffffffffffffffffffffffffffffffffff16610bc28288888080601f0160208091040260200160405190810160405280939291908181526020018383808284378201915050505050506124ca565b73ffffffffffffffffffffffffffffffffffffffff16141515610be457600080fd5b610c0c89610bfc60018561259490919063ffffffff16565b866125c19092919063ffffffff16565b610c18848a8a8a61260f565b868873ffffffffffffffffffffffffffffffffffffffff168a73ffffffffffffffffffffffffffffffffffffffff167fddf252ad1be2c89b69c2b068fc378daa952ba7f163c4a11628f55a4df523b3ef60405160405180910390a4505050505050505050565b6000806000806000610c8e6120e0565b945060001515610cab8c600190048761265290919063ffffffff16565b1515141515610cb957600080fd5b610ccc338661232f90919063ffffffff16565b9350610ce18a8661232f90919063ffffffff16565b9250610d4b8460405180807f4372656174655265636f72644f776e657228627974657333322c61646472657381526020017f732900000000000000000000000000000000000000000000000000000000000081525060220190506040518091039020338d8f61237e565b9150610db58360405180807f4372656174655265636f72645061727469636970616e7428627974657333322c81526020017f616464726573732900000000000000000000000000000000000000000000000081525060280190506040518091039020338d8f61237e565b90503373ffffffffffffffffffffffffffffffffffffffff16610e0a838b8b8080601f0160208091040260200160405190810160405280939291908181526020018383808284378201915050505050506124ca565b73ffffffffffffffffffffffffffffffffffffffff16141515610e2c57600080fd5b8973ffffffffffffffffffffffffffffffffffffffff16610e7f8289898080601f0160208091040260200160405190810160405280939291908181526020018383808284378201915050505050506124ca565b73ffffffffffffffffffffffffffffffffffffffff16141515610ea157600080fd5b60018560020160030160008d60019004815260200190815260200160002060006101000a81548160ff021916908315150217905550610eef338c60019004876126829092919063ffffffff16565b5050505050505050505050565b600080610f076120e0565b9150610f1c83836121a290919063ffffffff16565b90508473ffffffffffffffffffffffffffffffffffffffff168173ffffffffffffffffffffffffffffffffffffffff16148015610f70575060008173ffffffffffffffffffffffffffffffffffffffff1614155b8015610f93575060008473ffffffffffffffffffffffffffffffffffffffff1614155b1515610f9e57600080fd5b610faa82828786612772565b1515610fb557600080fd5b610fc18286868661260f565b828473ffffffffffffffffffffffffffffffffffffffff168673ffffffffffffffffffffffffffffffffffffffff167fddf252ad1be2c89b69c2b068fc378daa952ba7f163c4a11628f55a4df523b3ef60405160405180910390a45050505050565b600080600073ffffffffffffffffffffffffffffffffffffffff168473ffffffffffffffffffffffffffffffffffffffff16141515156110cb576040517f08c379a000000000000000000000000000000000000000000000000000000000815260040180806020018281038252601b8152602001807f506c656173652073656c65637420612076616c696420696e646578000000000081525060200191505060405180910390fd5b6110d36120e0565b9050828160070160010160008673ffffffffffffffffffffffffffffffffffffffff1673ffffffffffffffffffffffffffffffffffffffff168152602001908152602001600020805490501115156111b9576040517f08c379a00000000000000000000000000000000000000000000000000000000081526004018080602001828103825260278152602001807f5468617420746f6b656e20646f65736e277420657869737420666f722074686981526020017f73206f776e65720000000000000000000000000000000000000000000000000081525060400191505060405180910390fd5b8060070160010160008573ffffffffffffffffffffffffffffffffffffffff1673ffffffffffffffffffffffffffffffffffffffff1681526020019081526020016000208381548110151561120a57fe5b906000526020600020015491505092915050565b6000806112296120e0565b915061123e83836121a290919063ffffffff16565b90508473ffffffffffffffffffffffffffffffffffffffff168173ffffffffffffffffffffffffffffffffffffffff16148015611292575060008173ffffffffffffffffffffffffffffffffffffffff1614155b80156112b5575060008473ffffffffffffffffffffffffffffffffffffffff1614155b15156112c057600080fd5b6112cc82828786612772565b15156112d757600080fd5b6112e38286868661260f565b6112ec84612811565b156114be5760405180807f6f6e455243373231526563656976656428616464726573732c6164647265737381526020017f2c75696e743235362c6279746573290000000000000000000000000000000000815250602f01905060405180910390207bffffffffffffffffffffffffffffffffffffffffffffffffffffffff19168473ffffffffffffffffffffffffffffffffffffffff1663150b7a023388876040518463ffffffff167c0100000000000000000000000000000000000000000000000000000000028152600401808473ffffffffffffffffffffffffffffffffffffffff1673ffffffffffffffffffffffffffffffffffffffff1681526020018373ffffffffffffffffffffffffffffffffffffffff1673ffffffffffffffffffffffffffffffffffffffff16815260200182815260200180602001828103825260008152602001602001945050505050602060405180830381600087803b15801561145757600080fd5b505af115801561146b573d6000803e3d6000fd5b505050506040513d602081101561148157600080fd5b81019080805190602001909291905050507bffffffffffffffffffffffffffffffffffffffffffffffffffffffff19161415156114bd57600080fd5b5b828473ffffffffffffffffffffffffffffffffffffffff168673ffffffffffffffffffffffffffffffffffffffff167fddf252ad1be2c89b69c2b068fc378daa952ba7f163c4a11628f55a4df523b3ef60405160405180910390a45050505050565b60008061152b6120e0565b9050826115378261231e565b1115156115ac576040517f08c379a00000000000000000000000000000000000000000000000000000000081526004018080602001828103825260188152602001807f5468617420696e64657820646f65736e2774206578697374000000000000000081525060200191505060405180910390fd5b80600101838154811015156115bd57fe5b9060005260206000200154915050919050565b6000806000806000806115e16120e0565b95506115fa89600190048761265290919063ffffffff16565b15151561166f576040517f08c379a00000000000000000000000000000000000000000000000000000000081526004018080602001828103825260158152602001807f5265636f726420416c726561647920457869737473000000000000000000000081525060200191505060405180910390fd5b6116868a60019004876121a290919063ffffffff16565b945060405180807f56657273696f6e5265636f726428627974657333322c62797465733332290000815250601e019050604051809103902093506116d3858761232f90919063ffffffff16565b92506040518381523060208201528460408201528a60448201528960648201526084812092506084388239506040805190810160405280601c81526020017f19457468657265756d205369676e6564204d6573736167653a0a333200000000815250826040516020018083805190602001908083835b60208310151561176e5780518252602082019150602081019050602083039250611749565b6001836020036101000a0380198251168184511680821785525050505050509050018260001916600019168152602001925050506040516020818303038152906040526040518082805190602001908083835b6020831015156117e657805182526020820191506020810190506020830392506117c1565b6001836020036101000a038019825116818451168082178552505050505050905001915050604051809103902091506118518289898080601f0160208091040260200160405190810160405280939291908181526020018383808284378201915050505050506124ca565b90508073ffffffffffffffffffffffffffffffffffffffff168573ffffffffffffffffffffffffffffffffffffffff1614806118ce57508073ffffffffffffffffffffffffffffffffffffffff166118b68b60019004886121e590919063ffffffff16565b73ffffffffffffffffffffffffffffffffffffffff16145b1515611968576040517f08c379a000000000000000000000000000000000000000000000000000000000815260040180806020018281038252602f8152602001807f4d7573742062652073696e67656420627920746865206f776e6572206f72206181526020017f7070726f7665642061646472657373000000000000000000000000000000000081525060400191505060405180910390fd5b60018660020160030160008b60019004815260200190815260200160002060006101000a81548160ff0219169083151502179055506119b6338a60019004886126829092919063ffffffff16565b6119cf338b600190048861282a9092919063ffffffff16565b898660020160020160008b600190048152602001908152602001600020816000191690555050505050505050505050565b600080611a1d83611a0f6120e0565b6121a290919063ffffffff16565b905060008173ffffffffffffffffffffffffffffffffffffffff1614151515611a4557600080fd5b80915050919050565b60008073ffffffffffffffffffffffffffffffffffffffff168273ffffffffffffffffffffffffffffffffffffffff1614151515611a8b57600080fd5b611aa582611a976120e0565b612a1390919063ffffffff16565b9050919050565b6000611ab66120e0565b9050611acf8360019004826121a290919063ffffffff16565b73ffffffffffffffffffffffffffffffffffffffff163373ffffffffffffffffffffffffffffffffffffffff161480611b495750611b1a8360019004826121e590919063ffffffff16565b73ffffffffffffffffffffffffffffffffffffffff163373ffffffffffffffffffffffffffffffffffffffff16145b1515611bbd576040517f08c379a000000000000000000000000000000000000000000000000000000000815260040180806020018281038252601c8152602001807f5468652073656e646572206d75737420626520746865206f776e65720000000081525060200191505060405180910390fd5b611bd482600190048261265290919063ffffffff16565b151515611c49576040517f08c379a00000000000000000000000000000000000000000000000000000000081526004018080602001828103825260158152602001807f5265636f726420416c726561647920457869737473000000000000000000000081525060200191505060405180910390fd5b60018160020160030160008460019004815260200190815260200160002060006101000a81548160ff021916908315150217905550611c97338360019004836126829092919063ffffffff16565b611cb03384600190048361282a9092919063ffffffff16565b82816002016002016000846001900481526020019081526020016000208160001916905550505050565b60606040805190810160405280600381526020017f424f4c0000000000000000000000000000000000000000000000000000000000815250905090565b6000611d216120e0565b9050611d3a33848484612a65909392919063ffffffff16565b8273ffffffffffffffffffffffffffffffffffffffff163373ffffffffffffffffffffffffffffffffffffffff167f17307eab39ab6107e8899845ad3d59bd9653f200f220920489ca2b5937696c3184604051808215151515815260200191505060405180910390a3505050565b600080611db36120e0565b9150611dc885836121a290919063ffffffff16565b90508673ffffffffffffffffffffffffffffffffffffffff168173ffffffffffffffffffffffffffffffffffffffff16148015611e1c575060008173ffffffffffffffffffffffffffffffffffffffff1614155b8015611e3f575060008673ffffffffffffffffffffffffffffffffffffffff1614155b1515611e4a57600080fd5b611e5682828988612772565b1515611e6157600080fd5b611e6d8288888861260f565b611e7686612811565b156120565760405180807f6f6e455243373231526563656976656428616464726573732c6164647265737381526020017f2c75696e743235362c6279746573290000000000000000000000000000000000815250602f01905060405180910390207bffffffffffffffffffffffffffffffffffffffffffffffffffffffff19168673ffffffffffffffffffffffffffffffffffffffff1663150b7a02338a8989896040518663ffffffff167c0100000000000000000000000000000000000000000000000000000000028152600401808673ffffffffffffffffffffffffffffffffffffffff1673ffffffffffffffffffffffffffffffffffffffff1681526020018573ffffffffffffffffffffffffffffffffffffffff1673ffffffffffffffffffffffffffffffffffffffff16815260200184815260200180602001828103825284848281815260200192508082843782019150509650505050505050602060405180830381600087803b158015611fef57600080fd5b505af1158015612003573d6000803e3d6000fd5b505050506040513d602081101561201957600080fd5b81019080805190602001909291905050507bffffffffffffffffffffffffffffffffffffffffffffffffffffffff191614151561205557600080fd5b5b848673ffffffffffffffffffffffffffffffffffffffff168873ffffffffffffffffffffffffffffffffffffffff167fddf252ad1be2c89b69c2b068fc378daa952ba7f163c4a11628f55a4df523b3ef60405160405180910390a450505050505050565b60006120d883836120c96120e0565b6122289092919063ffffffff16565b905092915050565b60006002600060405180807f4e46545f424153450000000000000000000000000000000000000000000000008152506008019050604051809103902060001916600019168152602001908152602001600020905090565b6000826000016000837bffffffffffffffffffffffffffffffffffffffffffffffffffffffff19167bffffffffffffffffffffffffffffffffffffffffffffffffffffffff1916815260200190815260200160002060009054906101000a900460ff16905092915050565b600082600201600001600083815260200190815260200160002060009054906101000a900473ffffffffffffffffffffffffffffffffffffffff16905092915050565b600082600201600101600083815260200190815260200160002060009054906101000a900473ffffffffffffffffffffffffffffffffffffffff16905092915050565b60008360070160000160008473ffffffffffffffffffffffffffffffffffffffff1673ffffffffffffffffffffffffffffffffffffffff16815260200190815260200160002060008373ffffffffffffffffffffffffffffffffffffffff1673ffffffffffffffffffffffffffffffffffffffff16815260200190815260200160002060009054906101000a900460ff1690509392505050565b8183600201600101600083815260200190815260200160002060006101000a81548173ffffffffffffffffffffffffffffffffffffffff021916908373ffffffffffffffffffffffffffffffffffffffff160217905550505050565b600081600101805490509050919050565b60008260090160000160008373ffffffffffffffffffffffffffffffffffffffff1673ffffffffffffffffffffffffffffffffffffffff16815260200190815260200160002054905092915050565b600060405186815230816020015285816040015284816044015283816064015282816084015260a481209150506040805190810160405280601c81526020017f19457468657265756d205369676e6564204d6573736167653a0a333200000000815250816040516020018083805190602001908083835b60208310151561241a57805182526020820191506020810190506020830392506123f5565b6001836020036101000a0380198251168184511680821785525050505050509050018260001916600019168152602001925050506040516020818303038152906040526040518082805190602001908083835b602083101515612492578051825260208201915060208101905060208303925061246d565b6001836020036101000a0380198251168184511680821785525050505050509050019150506040518091039020905095945050505050565b600080600080604185511415156124e057600080fd5b602085015191506040850151925060418501519050601b8160ff16101561250857601b810190505b600186828486604051600081526020016040526040518085600019166000191681526020018460ff1660ff1681526020018360001916600019168152602001826000191660001916815260200194505050505060206040516020810390808403906000865af115801561257f573d6000803e3d6000fd5b50505060206040510351935050505092915050565b60008082840190508381101580156125ac5750828110155b15156125b757600080fd5b8091505092915050565b808360090160000160008473ffffffffffffffffffffffffffffffffffffffff1673ffffffffffffffffffffffffffffffffffffffff16815260200190815260200160002081905550505050565b6126228185612b0490919063ffffffff16565b61263783828661282a9092919063ffffffff16565b61264c8282866126829092919063ffffffff16565b50505050565b600082600201600301600083815260200190815260200160002060009054906101000a900460ff16905092915050565b8183600201600001600083815260200190815260200160002060006101000a81548173ffffffffffffffffffffffffffffffffffffffff021916908373ffffffffffffffffffffffffffffffffffffffff1602179055506126e38383612a13565b836002016004016000838152602001908152602001600020819055508260070160010160008373ffffffffffffffffffffffffffffffffffffffff1673ffffffffffffffffffffffffffffffffffffffff168152602001908152602001600020819080600181540180825580915050906001820390600052602060002001600090919290919091505550505050565b60003373ffffffffffffffffffffffffffffffffffffffff168473ffffffffffffffffffffffffffffffffffffffff1614806127eb57503373ffffffffffffffffffffffffffffffffffffffff166127d383876121e590919063ffffffff16565b73ffffffffffffffffffffffffffffffffffffffff16145b8061280757506128068333876122289092919063ffffffff16565b5b9050949350505050565b600080823b905060008163ffffffff1611915050919050565b60008060006128398686612a13565b92508560070160010160008673ffffffffffffffffffffffffffffffffffffffff1673ffffffffffffffffffffffffffffffffffffffff168152602001908152602001600020612893600185612b4390919063ffffffff16565b81548110151561289f57fe5b906000526020600020015491506128b68685612b5f565b90508560070160010160008673ffffffffffffffffffffffffffffffffffffffff1673ffffffffffffffffffffffffffffffffffffffff168152602001908152602001600020612910600185612b4390919063ffffffff16565b81548110151561291c57fe5b906000526020600020016000905561293e600184612b4390919063ffffffff16565b8660070160010160008773ffffffffffffffffffffffffffffffffffffffff1673ffffffffffffffffffffffffffffffffffffffff1681526020019081526020016000208161298d9190612b82565b50818660070160010160008773ffffffffffffffffffffffffffffffffffffffff1673ffffffffffffffffffffffffffffffffffffffff168152602001908152602001600020828154811015156129e057fe5b90600052602060002001819055508086600201600401600084815260200190815260200160002081905550505050505050565b60008260070160010160008373ffffffffffffffffffffffffffffffffffffffff1673ffffffffffffffffffffffffffffffffffffffff16815260200190815260200160002080549050905092915050565b808460070160000160008573ffffffffffffffffffffffffffffffffffffffff1673ffffffffffffffffffffffffffffffffffffffff16815260200190815260200160002060008473ffffffffffffffffffffffffffffffffffffffff1673ffffffffffffffffffffffffffffffffffffffff16815260200190815260200160002060006101000a81548160ff02191690831515021790555050505050565b81600201600101600082815260200190815260200160002060006101000a81549073ffffffffffffffffffffffffffffffffffffffff02191690555050565b6000818310151515612b5457600080fd5b818303905092915050565b600082600201600401600083815260200190815260200160002054905092915050565b815481835581811115612ba957818360005260206000209182019101612ba89190612bae565b5b505050565b612bd091905b80821115612bcc576000816000905550600101612bb4565b5090565b905600a165627a7a723058201930c069c284b15bdb27c119b4b3735bcd5afbba5be982fb5c21b54ee283919d0029",
  "compiler": {
    "name": "solc",
    "version": "0.4.26+commit.4563c3fc.Emscripten.clang",
    "optimizer": {
      "enabled": false,
      "runs": 200
    },
    "evmVersion": "byzantium"
  }
}